:10096E006572726F723A206E6F20636865636B20DA
:10097E007732357131360D0A007265616420627509
:0B098E00666665723A2025730D0A00B2
:0D0A23008B00474E442073747564696F00AA
:10083F007F01120A4D7F01120A451208F7EF641467
:10084F007003EE64EF60097BFF7A09796E12006521
:10085F007BFE7A007900781CE4F208740BF27D00BD
:10086F007C0412035E7F647E001209D87BFE7A003F
:10087F00790C782EE4F208740BF27D007C041207D9
:10088F00C2781A74FEF2087400F208740CF27BFF3F
:09089F007A09798712006580FED8
:1009D800EF1F70011E144E600BE4FDEDC3946E50C2
:0409E800EF0D80F798
:0109EC0022E8
:020A6900DFFEAE
:010A6B002268
:040A64007F02DFFE30
:010A6800226B
:010A6C002267
:070A5D00D283D280C2822285
:080A4500EFB40103120A5D2267
:0208A800A9079E
:1008AA00E4FBC2823081037480FBE4FD74807E0025
:1008BA00A805088006CEA2E713CE13D8F8FFE9F5FB
:1008CA0082EF558224FF9280D282C282EDC39407BE
:1008DA005013308110ED04FF7480A807088002C30A
:0C08EA0013D8FC4BFB0DEDB408C2AF03AB
:0108F60022DF
:1009C000759850758920758780758DFA758BFAD268
:0809D0008ED2ACD2AFD2992205
:080A4D00EFB401031209C022FD
:0E0A1400C2837F051208A87FFF1208A8D283B4
:010A220022B1
:1009ED00780BEFF2C2837F011208A8780BE2FF1299
:0509FD0008A8D28322CE
:0A0A3100C2837F061208A8D28322B8
:0A0A3B00C2837F041208A8D28322B0
:080A5500120A14EF20E0F9225F
:1008F700C2837F901208A8E4FF1208A8E4FF120839
:10090700A8E4FF1208A87FFF1208A8EFFE7817E2F5
:100917004EF208E2F27FFF1208A87817E2FE08E21B
:0B0927004FFF18EEF2FE08EFF2D28343
:0109320022A2
:1007C2007829EBF208EAF208E9F208ECF208EDF215
:1007D200C2837F031208A8782CE2FE08E27810CECA
:1007E200C313CE13D8F9FF1208A8782CE2FF12081F
:1007F200A8782C08E2FF1208A8E47830F208F27810
:100802002EE2FE08E2FFC37831E29F18E29E502AF0
:100812007FFF1208A87829E2FB08E2FA08E2F978D9
:1008220030E2FC08E2F5828C83EF1205747831E243
:0C0832002401F218E23400F280C5D283E9
:01083E002297
:100742007832EBF208EAF208E9F208ECF208EDF28C
:10075200C283120A31D283C2837F021208A878357B
:10076200E2FE08E27810CEC313CE13D8F9FF1208C6
:10077200A87835E2FF1208A8783508E2FF1208A827
:10078200E47839F208F27837E2FE08E2FF08E2FC88
:1007920008E2FDC39FEC9E50227832E2FB08E2FAA7
:1007A20008E2F98D828C83120547FF1208A8783A75
:1007B200E22401F218E23400F280CBD283020A551D
:100600007829EBF208EAF208E9F208ECF208EDF2D8
:10061000FFC3E49FFF74019400FE7830F208EFF20C
:10062000782EE2FC08E2FDD39FEC9E500608ECF227
:1006300008EDF27829E2FB08E2FA08E2F908E2FCA8
:1006400008E2FD7830E2FF08E27837CFF208EFF2F7
:100650001207427830E2FE08E2FF782EE2FC08E260
:10066000FDB50705ECB50601227830E2FE08E2FF91
:10067000782BE22FF218E23EF2782DE22FF218E208
:100680003EF27830E2FE08E2FFC3ED9FFFEC9EFEF3
:10069000782EF208EFF2D39400EE9401400908742A
:1006A00001F208E4F2808C782EE2FF08E208CFF233
:0606B00008EFF202063320
:10035E007817EBF208EAF208E9F208ECF208EDF28F
:10036E0078267401F2087400F208743BF2781AE2EF
:10037E00FC08E2FDECC4540FF8E4791EF3E809F32F
:10038E00EC540FFEAF057820F208EFF2FFC3E49FA6
:10039E00FF74109EFE08F208EFF2781CE2FC08E2F1
:1003AE00FDD39FEC9E50077822ECF208EDF27826F2
:1003BE00E2FB08E2FA08E2F9781FE27D00C454F08D
:1003CE00FC782E7410F208E4F21207C2E47824F2DC
:1003DE0008F27822E2FE08E2FF08E2FC08E2FDC322
:1003EE009FEC9E502A7821E22DFF18E23CFE7826E3
:1003FE00E2FB08E2FA08E2F98F828E83120547B417
:10040E00FF0D7825E22401F218E23400F280C37861
:10041E0022E2FE08E2FFC37825E29F18E29E400327
:10042E000204B1781EE2FE08E2FF120933E47824DA
:10043E00F208F27822E2FE08E2FF08E2FC08E2FD92
:10044E00C39FEC9E50417817E2FB08E2FA08E2F9EE
:10045E008D828C83120547FF7820E2FC08E2FD783E
:10046E0025E22DFD18E23CFC7826E2FB08E2FA08B4
:10047E00E2F98D828C83EF1205747825E22401F265
:10048E0018E23400F280AC7826E2FB08E2FA08E2C9
:10049E00F9781FE27D00C454F0FC782E7410F20837
:1004AE00E4801C7817E2FB08E2FA08E2F908E2FCA5
:1004BE0008E2FD7822E2FF08E2782ECFF208EFF292
:1004CE001206007822E2FE08E2FF781CE2FC08E247
:1004DE00FDB50705ECB5060122781FE22401F218DE
:1004EE00E23400F2E47820F208F208E2FE08E2FFBD
:1004FE007819E22FF218E23EF2781BE22FF218E2A0
:10050E003EF27822E2FE08E2FFC3ED9FFFEC9EFE74
:10051E00781CF208EFF2D39400EE9410400B782280
:10052E007410F208E4F20203BC781CE2FF08E278D1
:09053E0022CFF208EFF20203BC27
:100A0200120A31120A55C2837FC71208A8D2830282
:020A12000A5583
:100933007829EEF208EFF2120A31120A55C2837FC8
:10094300201208A87829E2FE08E27810CEC313CE5D
:1009530013D8F9FF1208A87829E2FF1208A878290A
:0B09630008E2FF1208A8D283020A5528
:030000000206B63F
:0C06B600787FE4F6D8FD7581210206FD76
:10054700BB010CE58229F582E5833AF583E0225069
:1005570006E92582F8E622BBFE06E92582F8E222B3
:0D056700E58229F582E5833AF583E49322CD
:10057400F8BB010DE58229F582E5833AF583E8F0BD
:10058400225006E92582C8F622BBFE05E92582C869
:02059400F22251
:10000300E508241AF8E20508227817300702781A5F
:10001300E475F0011205C10205962000EB7F2ED294
:10002300008018EF540F2490D43440D4FF30040BD5
:10003300EF24BFB41A0050032461FFE509600215E1
:1000430009050CE50C7002050B30070D7817E475F4
:10005300F0011205C1EF0205AF0209997403D2073B
:100063008003E4C207F50878171205D1E4F509F512
:100073000BF50CE50960077F2012003E80F5750A39
:10008300FFC201C200C202C203C205C206C20812F5
:10009300000CFF700D3007057F0012004FAF0CAE50
:1000A3000B22B4255FC2D5C20412000CFF24D0B4C6
:1000B3000A00501A75F00A780930D50508B6FF0111
:1000C30006C6A426F620D5047002D20380D924CF15
:1000D300B41A00EF5004C2E5D20402024ED20180EA
:1000E300C6D20080C0D20280BCD2D580BAD20580ED
:1000F300B47F2012003E2002077401B5090040F1CD
:10010300120003FF12003E020076D208D206809549
:10011300120003FB120003FA120003F94A4B7006A4
:10012300791F7A037BFF20022EE509602A7E008E69
:100133008275830012054760060EEE650A70F0C2F1
:10014300D5EBC0E0EAC0E0E9C0E0EE120295D0E0F2
:10015300F9D0E0FAD0E0FB120596FF60AAEBC0E00D
:10016300EAC0E0E9C0E012003ED0E02401F9D0E0AB
:100173003400FAD0E0FBE50A0460DCD50AD98087B5
:100183007BFF7A027991D202809C791080027908F0
:10019300C206C2088008D2D5790A8004790AC2D57A
:1001A300E50A047002F50AE4FAFDFEFF120003FCFF
:1001B3007B08200113120003FD7B1030000A12009C
:1001C30003FE120003FF7B20EC3382D592D550133C
:1001D300C3E43000069FFFE49EFEE42001039DFD7F
:1001E300E49CFCE4CBF8C201EC700CCFCECDCCE8A0
:1001F30024F8F870F38017C3EF33FFEE33FEED33CB
:10020300FDEC33FCEB33FB994002FB0FD8E9EB30F9
:100213000105F8D0E0C448B201C0E00AEC4D4E4FEE
:1002230078207B0070C2EAB50A0040BCC0E012022D
:1002330097D0F0D0E0200104C4C0E0C4B201C0F004
:10024300120027D0F0D5F0EB0200761205DA011385
:1002530053018D5800E44C00E04201914F01994451
:1002630001994900F943019F5501834601834501E3
:010273008307
:1002740047033F5000E82D00EC2E010F2B00F02324
:10028400010D2003282A00A848000001073F3F3F32
:1002940000790AA2D5200314300509B91002040418
:1002A400B9080104A2D52006025001042002689274
:1002B40002B509005034C0E07F203003197F30A21A
:1002C4000272067205500F1202EEC202C206C20585
:1002D400C2087F30800F300503E9C0E012003E30D1
:1002E4000503D0E0F9D0E0B509CC3005177F30B96B
:1002F400100C12003E7F583004077F788003B90841
:100304000312003E3002057F2D02003E7F202008AC
:10031400F87F2B2006F322920280CF286E756C6C36
:100324002900D2011200033001F8C201780930D546
:100334000108F60200A82D50434958120003240373
:10034400B405004001E490033A9312002F743A126A
:0A035400002FD20375090402018D89
:1006C20002083FE493A3F8E493A34003F68001F207
:1006D20008DFF48029E493A3F85407240CC8C33339
:1006E200C4540F4420C8834004F456800146F6DF08
:1006F200E4800B0102040810204080900A23E47E6B
:10070200019360BCA3FF543F30E509541FFEE493FC
:10071200A360010ECF54C025E060A840B8E493A3C3
:10072200FAE493A3F8E493A3C8C582C8CAC583CAEE
:10073200F0A3C8C582C8CAC583CADFE9DEE780BEA6
:010A300000C5
:10059600BB010689828A83E0225002E722BBFE0263
:0905A600E32289828A83E4932296
:1005AF00BB010689828A83F0225002F722BBFE012B
:0205BF00F32225
:1005C100FAE2FB0808E2F925F0F218E2CA3AF2224F
:0905D100EBF208EAF208E9F2225B
:1005DA00D083D082F8E4937012740193700DA3A3B0
:1005EA0093F8740193F5828883E4737402936860C4
:0605FA00EFA3A3A380DFC4
:10099900EFB40A07740D1209A4740A309811A899C2
:1009A900B8130CC2983098FDA899C298B811F630BE
:0709B90099FDC299F5992296
:00000001FF
