:0B0AF900474E442053747564696F0081
:100A40007F01120B047F01120B0BE4FF1209E47B00
:100A5000FF7A0A79F9750E017D037C007F18120771
:030A6000DB80FE3A
:100AB600EF1F70011E144E600BE4FDEDC3946E50E3
:040AC600EF0D80F7B9
:010ACA002209
:020B1700DFFEFF
:010B190022B9
:040B12007F02DFFE81
:010B160022BC
:010B1A0022B8
:100ACB00D294D29500000000C29500000000C294A1
:010ADB0022F8
:100ADC00C294C29500000000D29400000000D29590
:010AEC0022E7
:070B0400BF0103120ACB221E
:1009B500E4FEEF30E704D2958002C2950000000006
:1009C500D29400000000C294EF25E0FF0EBE08E2BD
:0E09D500D29500000000D29400000000C294F1
:0109E30022F1
:100003000000000000000000002F000000000700B7
:10001300070000147F147F1400242A7F2A12006231
:1000230064081323003649552250000005030000DD
:1000330000001C224100000041221C000014083E65
:1000430008140008083E0808000000A0600000082B
:10005300080808080000606000000020100804027F
:10006300003E5149453E0000427F4000004261513D
:100073004946002141454B31001814127F100027D7
:1000830045454539003C4A4949300001710905039A
:1000930000364949493600064949291E00003636CB
:1000A300000000005636000000081422410000142E
:1000B300141414140000412214080002015109060B
:1000C30000324959513E007C1211127C007F49498C
:1000D3004936003E41414122007F4141221C007FBD
:1000E30049494941007F09090901003E4149497ACB
:1000F300007F0808087F0000417F41000020404145
:100103003F01007F08142241007F40404040007FB0
:10011300020C027F007F0408107F003E4141413EF4
:10012300007F09090906003E4151215E007F09193C
:1001330029460046494949310001017F0101003F39
:100143004040403F001F2040201F003F4038403FB9
:10015300006314081463000708700807006151491D
:10016300454300007F41410000552A552A550000B0
:1001730041417F000004020102040040404040402E
:10018300000001020400002054545478007F4844C6
:10019300443800384444442000384444487F0038FD
:1001A3005454541800087E0901020018A4A4A47C26
:1001B300007F080404780000447D400000408084F0
:1001C3007D00007F102844000000417F4000007C38
:1001D30004180478007C0804047800384444443844
:1001E30000FC242424180018242418FC007C080490
:1001F300040800485454542000043F444020003C69
:100203004040207C001C2040201C003C4030403CEF
:10021300004428102844001CA0A0A07C004464547F
:100223004C441414141414140000000000000000C3
:100233000000000000000000000000F800000000C3
:10024300000000333000000000100C06100C060004
:10025300000000000000000040C07840C07840006B
:10026300043F04043F040400007088FC08300000CD
:10027300001820FF211E0000F008F000E018000025
:1002830000211C031E211E0000F0088870000000DE
:100293001E2123241927211010160E000000000030
:1002A3000000000000000000000000E0180402004D
:1002B300000000071820400000020418E0000000BE
:1002C3000040201807000000404080F080404000BC
:1002D3000202010F01020200000000F00000000012
:1002E3000101011F010101000000000000000000E6
:1002F30080B070000000000000000000000000005B
:1003030000010101010101010000000000000000E3
:10031300003030000000000000000000806018047E
:10032300006018060100000000E010080810E0005B
:10033300000F102020100F00001010F80000000024
:100343000020203F2020000000700808088870006B
:1003530000302824222130000030088888483000EB
:100363000018202020110E000000C02010F800000B
:1003730000070424243F240000F8088888080800A4
:100383000019212020110E0000E0108888180000B9
:10039300000F112020110E0000380808C83808008B
:1003A3000000003F0000000000708808088870000B
:1003B300001C222121221C0000E010080810E0008C
:1003C3000000312222110F00000000C0C000000015
:1003D300000000303000000000000080000000003A
:1003E3000000806000000000000080402010080032
:1003F30000010204081020004040404040404000FB
:1004030004040404040404000008102040800000D5
:100413000020100804020100007048080808F000DA
:100423000000003036010000C030C828E810E000AA
:100433000718272423140B000000C038E000000035
:10044300203C23020227382008F88888887000009F
:10045300203F202020110E00C03008080808380073
:10046300071820202010080008F808080810E000EA
:10047300203F202020100F0008F88888E80810008B
:10048300203F20202320180008F88888E80810005F
:10049300203F200003000000C03008080838000097
:1004A30007182020221E020008F808000008F80898
:1004B300203F210101213F20000808F8080800001F
:1004C3000020203F2020000000000808F808080052
:1004D300C08080807F00000008F888C028180800CA
:1004E300203F20012638200008F808000000000003
:1004F300203F20202020300008F8F800F8F80800FA
:10050300203F003F003F200008F830C00008F808F3
:10051300203F200007183F00E01008080810E00003
:100523000F10202020100F0008F808080808F0001A
:10053300203F210101010000E01008080810E0003D
:100543000F18242438504F0008F8888888887000D2
:10055300203F2000030C3020007088080808380072
:100563000038202121221C00180808F80808180068
:100573000000203F2000000008F808000008F808E9
:10058300001F202020201F000878880000C838089A
:10059300000007380E010000F80800F80008F80012
:1005A300033C0700073C03000818688080681808AC
:1005B30020302C03032C30200838C800C83808002A
:1005C3000000203F2000000010080808C838080079
:1005D3002038262120201800000000FE020202001D
:1005E3000000007F40404000000C30C000000000CD
:1005F300000000010638C00000020202FE000000F5
:10060300004040407F00000000000402020204009A
:1006130000000000000000000000000000000000D7
:1006230080808080808080800002020400000000BF
:1006330000000000000000000000808080800000B7
:100643000019242222223F2008F8008080000000A5
:10065300003F112020110E00000000808080000068
:10066300000E112020201100000000808088F80077
:10067300000E112020103F200000808080800000A9
:10068300001F222222221300008080F0888888180D
:100693000020203F20200000000080808080800018
:1006A300006B94949493600008F8008080800000AD
:1006B300203F210000203F20008098980000000088
:1006C3000020203F202000000000008098980000B8
:1006D30000C08080807F000008F8000080808000D8
:1006E300203F24022D302000000808F800000000FD
:1006F3000020203F202000008080808080808000B8
:10070300203F20003F20003F808000808080000049
:10071300203F210000203F200000808080800000D7
:10072300001F202020201F00808000808000000008
:1007330080FFA12020110E00000000808080800037
:10074300000E112020A0FF80808080008080800028
:1007530020203F2120000100000080808080800055
:100763000033242424241900008080E080800000CA
:100773000000001F20200000808000000080800017
:10078300001F202020103F20808080000080808078
:1007930000010E3008060100808000800080808008
:1007A3000F300C030C300F0000808000808080002D
:1007B3000020312E0E312000808080000080808058
:1007C30080818E7018060100008080808080800008
:0807D3000021302C222130002E
:050A8000F583E493FF83
:100A85008F12120ACB7F781209B57F401209B5AFD4
:070A9500121209B5020ADC90
:030A9C0024B0FF84
:100A9F008F13120ACB7F781209B5E4FF1209B5AF95
:070AAF00131209B5020ADC75
:100A63008F12ED120A9CE51254F0C4540F4410FF88
:0D0A7300120A9FE512540F4401FF020A9F72
:0209E4008F087A
:1009E600E4F509E509120A9C7F01120A9F7F10129D
:1009F6000A9FE4F50AAF08120A85050AE50AC394B8
:0C0A06008040F20509E509C3940840D7C0
:010A120022C1
:10098500E4F514E51424B0FF120A9F7F01120A9FB3
:100995007F10120A9FE4F515E4FF120A850515E597
:0F09A50015C3948040F20514E514C3940840D4A0
:0109B4002220
:1008F2007F907E01120AB67FAE120A9FE4FF120AAF
:100902009F7F10120A9F7F40120A9F7F81120A9FC7
:100912007FFF120A9F7FA1120A9F7FC8120A9F7F40
:10092200A6120A9F7FA8120A9F7F3F120A9F7FD3B7
:10093200120A9FE4FF120A9F7FD5120A9F7F80123C
:100942000A9F7FD9120A9F7FF1120A9F7FDA120A49
:100952009F7F12120A9F7FDB120A9F7F40120A9F1B
:100962007F20120A9F7F02120A9F7F8D120A9F7FA9
:1009720014120A9F7FA4120A9F7FA6120A9F7FAFBA
:03098200020A9FC7
:070B0B00BF01031208F222F2
:0C07DB008F088C098D0A8B0B8A0C890D8D
:1007E700E4F50FF510F511E50E14606904600302D6
:1007F70008F1AB0BAA0CA90D851182758300120AAB
:100807001370030208F124E0F50FE508D3947E4046
:100817000BE4F508050AE50A70020509AD0AAF08F9
:10082700120A63E4F51075F006E50FA42403F582B8
:10083700E5F03400F583E5822510F582E43583126F
:100847000A800510E510C3940640DB74062508F5F9
:10085700080511809DAB0BAA0CA90D851182758324
:1008670000120A1370030208F124E0F50FE508D31C
:100877009478400BE4F508050AE50A70020509AD0E
:100887000AAF08120A63E4F51075F010E50FA42506
:1008970010F582E435F0F583E582242BF582E583B4
:1008A7003402120A800510E510C3940840DBE50AFC
:1008B70004FDAF08120A63E4F51075F010E50FA404
:1008C7002510F582E435F0F583E5822433F582E5DA
:1008D700833402120A800510E510C3940840DB74C4
:0A08E700082508F508051102085C59
:0108F10022E4
:03000000020AED04
:0C0AED00787FE4F6D8FD758115020A4000
:100A1300BB010CE58229F582E5833AF583E0225098
:100A230006E92582F8E622BBFE06E92582F8E222E2
:0D0A3300E58229F582E5833AF583E49322FC
:00000001FF
