:050257007F011202CE40
:10025C00750D64E50DD394004014AF0D1200DC7FD6
:10026C00647E001202B974F6250DF50D80E5E4F5F7
:10027C000DE50DC3946450D8AF0D1200DC7F647E85
:0C028C00001202B9740A250DF50D80E582
:1002B900EF1F70011E144E600BE4FDEDC3946E50E8
:0402C900EF0D80F7BE
:0102CD00220E
:02000800DFFE19
:01000A0022D3
:040003007F02DFFE9B
:0100070022D6
:0102E70022F4
:0302E3000108010E
:0A02D900758901D2A9D2AFD28C22A0
:0B02CE00BF01030202D9C2AFC28C22A4
:1000DC008F0EE50ED394644005750E64800AE50E10
:1000EC00C394005003E4F50EAF0EAB07C374FF9B33
:1000FC00FF74FF9400FEE49400FDE49400FCE4FB28
:10010C007A01F9F81202138F09AF0EAB07C374FF13
:10011C009BFF74FF9400FEE49400FDE49400FCE467
:10012C00FB7A01F9F8120213AF038F0AC3746495BA
:10013C000EFFE49400FAC374FF9FFF74FF9AFEE471
:10014C009400FDE49400FCE4FB7A01F9F81202132C
:10015C008F0BC37464950EFFE49400FAC374FF9F75
:10016C00FF74FF9AFEE49400FDE49400FCE4FB7A37
:0B017C0001F9F8120213AF038F0C22F0
:03000B0002029856
:10029800C0E0E508600D85098C850A8CC292750856
:1002A80000800B850B8C850C8CD292750801D0E0F0
:0102B8003213
:0300000002018773
:0C018700787FE4F6D8FD75810E0201CEF1
:10021300C2D5E830E70FB2D5E4C39BFBE49AFAE416
:1002230099F9E498F8EC30E717B2D51202491200B5
:100233004AE4C39BFBE49AFAE499F9E498F880034F
:1002430012004A30D50DE4C39FFFE49EFEE49DFDFA
:04025300E49CFC2209
:10019300020257E493A3F8E493A34003F68001F229
:1001A30008DFF48029E493A3F85407240CC8C3336D
:1001B300C4540F4420C8834004F456800146F6DF3C
:1001C300E4800B01020408102040809002E3E47EE7
:1001D300019360BCA3FF543F30E509541FFEE49331
:1001E300A360010ECF54C025E060A840B8E493A3F8
:1001F300FAE493A3F8E493A3C8C582C8CAC583CA23
:10020300F0A3C8C582C8CAC583CADFE9DEE780BEDA
:0102E6000017
:10000E0075F008758200EF2FFFEE33FECD33CDCCA9
:10001E0033CCC58233C5829BED9AEC99E58298402C
:10002E000CF582EE9BFEED9AFDEC99FC0FD5F0D609
:10003E00E4CEFBE4CDFAE4CCF9A88222B800C1B933
:10004E000059BA002DEC8BF084CFCECDFCE5F0CB71
:10005E00F97818EF2FFFEE33FEED33FDEC33FCEBAA
:10006E0033FB10D703994004EB99FB0FD8E5E4F965
:10007E00FA227818EF2FFFEE33FEED33FDEC33FC52
:10008E00C933C910D7059BE99A4007EC9BFCE99A46
:10009E00F90FD8E0E4C9FAE4CCFB2275F010EF2F8B
:1000AE00FFEE33FEED33FDCC33CCC833C810D7078B
:1000BE009BEC9AE899400AED9BFDEC9AFCE899F8C6
:0E00CE000FD5F0DAE4CDFBE4CCFAE4C8F92259
:00000001FF
