:0E0112007F011200037F01120120C29280FCC7
:1000EB00EF1F70011E144E600BE4FDEDC3946E50B8
:0400FB00EF0D80F78E
:0100FF0022DE
:02013500DFFEEB
:0101370022A5
:040127007F02DFFE76
:01012B0022B1
:01000A0022D3
:05012C00C2A2C2A422E2
:07000300BF010312012C22D2
:03013100010914AD
:10010000758901D2A9D2AF758C3C758AAFC28DD2E8
:020110008C223F
:07012000BF010312010022E0
:03000B0002009A56
:10009A00C0E0C0F0C083C082C0D075D000C000C02C
:1000AA0001C002C003C004C005C006C007C28C75E7
:1000BA008C3C758AAFD5090C750914D2927F647E7F
:1000CA00001200EBD28CD007D006D005D004D003A2
:1000DA00D002D001D000D0D0D082D083D0F0D0E0EE
:0100EA0032E3
:0300000002000EED
:0C000E00787FE4F6D8FD758109020055EA
:10001A00020112E493A3F8E493A34003F68001F2E9
:10002A0008DFF48029E493A3F85407240CC8C333E7
:10003A00C4540F4420C8834004F456800146F6DFB6
:10004A00E4800B0102040810204080900131E47E14
:10005A00019360BCA3FF543F30E509541FFEE493AB
:10006A00A360010ECF54C025E060A840B8E493A372
:10007A00FAE493A3F8E493A3C8C582C8CAC583CA9D
:10008A00F0A3C8C582C8CAC583CADFE9DEE780BE55
:0101340000CA
:00000001FF
