:100003007F011200547F011200657F0112005ED24E
:10001300A2D2A47FF47E01120033C2A2C2A420B3F1
:10002300FD7F0A7E0012003320B3F312007A80EEC4
:10003300EF1F70011E144E600BE4FDEDC3946E5070
:04004300EF0D80F746
:010047002296
:02007E00DFFEA3
:01008000225D
:04006C007F02DFFE32
:01007000226D
:010084002259
:0400760075E13522D9
:0A005400BF010302007653E1EF2222
:04007A0075E13522D5
:03008100D2B322D5
:07005E00BF01031200812223
:05007100C2A2C2A4229E
:07006500BF0103120071222C
:03000000020048B3
:0C004800787FE4F6D8FD75810702000304
:00000001FF
