:10054B00CAAAB6C8CEAA25642E256420A3A55248F4
:10055B0020A3ACCEC2B6C8CEAA2025642E2564A19A
:10056B00E6200A0072656164206572726F720A0080
:03061600011C00C4
:1004F0007F011205FE7F0112061D120479EF6401CF
:1005000070371206207E00C007C0061206237E0048
:10051000C007C0061206267E00C007C006120629C4
:100520007511008F12D00FD010D00DD00ED00BD07F
:100530000C7BFF7A05794B80067BFF7A05796F1279
:0B05400000657F887E131205E980AF84
:1005E900EF1F70011E144E600BE4FDEDC3946E50B5
:0405F900EF0D80F78B
:0105FD0022DB
:02061A00DFFE01
:01061C0022BB
:040611007F02DFFE87
:0106150022C2
:0106320022A5
:03061D00020605CD
:10047900C2967F147E001205E9D296120611120661
:100489001112061120965D3096FD12061112061101
:100499001206111206111206111206111206111274
:1004A900061112057B8F2212057B8F2312057B8F84
:1004B9002412057B8F2512057B8F26D296E52225EE
:1004C90023FFE433FE7C00EF2524FFEC3EFEEF25FD
:1004D90025FFEC3EFEE526B50707ECB506037F01CF
:0704E900227F00227F0022A8
:03062000AF2222E4
:03062300AF2322E0
:03062600AF2422DC
:03062900AF2522D8
:06060500BF0102D29622A3
:03062C00D2962241
:03062F00C296224E
:06060B00A296E433FF2279
:10057B00E4F509F5083096FD120611120611120664
:10058B0011120611E50925E0F5093096034309011F
:0E059B002096FD0508E508C3940840D9AF0975
:0105A900222F
:1005D100759850758920758780758DFA758BFAD25B
:0805E1008ED2ACD2AFD29922F8
:0705FE00BF01031205D12229
:030000000203ED0B
:0C03ED00787FE4F6D8FD75812602043408
:10000300E517240BF8E60517227808300702780B6A
:10001300E475F0011203B702035F2000EB7F2ED2D9
:10002300008018EF540F2490D43440D4FF30040BD5
:10003300EF24BFB41A0050032461FFE518600215D2
:1000430018051BE51B7002051A30070D7808E475C7
:10005300F0011203B7EF0203A50205AA7403D20746
:100063008003E4C207F5178B088A09890AE4F518A7
:10007300F51AF51BE51860077F2012003E80F57521
:1000830019FFC201C200C202C203C205C206C208EE
:1000930012000CFF700D3007057F0012004FAF1BDD
:1000A300AE1A22B4255FC2D5C20412000CFF24D0BD
:1000B300B40A00501A75F00A781830D50508B6FF4F
:1000C3000106C6A426F620D5047002D20380D924E3
:1000D300CFB41A00EF5004C2E5D20402024FD2019A
:1000E30080C6D20080C0D20280BCD2D580BAD205ED
:1000F30080B47F2012003E2002077401B51800402F
:10010300F1120003FF12003E020077D208D20680EC
:1001130095120003FB120003FA120003F94A4B7015
:100123000679207A037BFF20022EE518602A7E00E1
:100133008E8275830012037860060EEE651970F0E7
:10014300C2D5EBC0E0EAC0E0E9C0E0EE120296D00F
:10015300E0F9D0E0FAD0E0FB12035FFF60AAEBC046
:10016300E0EAC0E0E9C0E012003ED0E02401F9D0AB
:10017300E03400FAD0E0FBE5190460DCD519D9803E
:10018300877BFF7A027992D202809C791080027970
:1001930008C206C2088008D2D5790A8004790AC247
:1001A300D5E519047002F519E4FAFDFEFF12000308
:1001B300FC7B08200113120003FD7B1030000A12A0
:1001C3000003FE120003FF7B20EC3382D592D5504F
:1001D30013C3E43000069FFFE49EFEE42001039D69
:1001E300FDE49CFCE4CBF8C201EC700CCFCECDCC8B
:1001F300E824F8F870F38017C3EF33FFEE33FEED16
:1002030033FDEC33FCEB33FB994002FB0FD8E9EBF6
:10021300300105F8D0E0C448B201C0E00AEC4D4E0D
:100223004F78207B0070C2EAB5190040BCC0E012D1
:100233000298D0F0D0E0200104C4C0E0C4B201C0F1
:10024300F0120027D0F0D5F0EB0200771203C701BC
:100253001453018E5800E54C00E14201924F019A7C
:0F02630044019A4900FA4301A0550184460184E1
:100272004501844703405000E92D00ED2E01102B6B
:1002820000F123010E2003292A00A94800000108D9
:100292003F3F3F00790AA2D5200314300509B91067
:1002A200020404B9080104A2D52006025001042068
:1002B20002689202B518005034C0E07F2030031962
:1002C2007F30A20272067205500F1202EFC202C202
:1002D20006C205C2087F30800F300503E9C0E01274
:1002E200003E300503D0E0F9D0E0B518CC30051758
:1002F2007F30B9100C12003E7F583004077F78809F
:1003020003B9080312003E3002057F2D02003E7F32
:10031200202008F87F2B2006F322920280CF286E3D
:10032200756C6C2900D2011200033001F8C2017809
:100332001830D50108F60200A92D50434958120081
:10034200032403B405004001E490033B9312002F01
:0D035200743A12002FD20375180402018EB8
:1003F9000204F0E493A3F8E493A34003F68001F226
:1004090008DFF48029E493A3F85407240CC8C33304
:10041900C4540F4420C8834004F456800146F6DFD3
:10042900E4800B0102040810204080900616E47E47
:10043900019360BCA3FF543F30E509541FFEE493C8
:10044900A360010ECF54C025E060A840B8E493A38F
:10045900FAE493A3F8E493A3C8C582C8CAC583CABA
:10046900F0A3C8C582C8CAC583CADFE9DEE780BE72
:0106190000E0
:10035F00BB010689828A83E0225002E722BBFE029C
:09036F00E32289828A83E49322CF
:10037800BB010CE58229F582E5833AF583E022503A
:1003880006E92582F8E622BBFE06E92582F8E22284
:0D039800E58229F582E5833AF583E493229E
:1003A500BB010689828A83F0225002F722BBFE0137
:0203B500F32231
:1003B700FAE6FB0808E6F925F0F618E6CA3AF62247
:1003C700D083D082F8E4937012740193700DA3A3C5
:1003D70093F8740193F5828883E4737402936860D9
:0603E700EFA3A3A380DFD9
:1005AA00EFB40A07740D1205B5740A309811A899A8
:1005BA00B8130CC2983098FDA899C298B811F630B1
:0705CA0099FDC299F5992289
:00000001FF
