:100078007F011200A07F011200997F011200898080
:01008800FE79
:10006300EF1F70011E144E600BE4FDEDC3946E5040
:04007300EF0D80F716
:010077002266
:02000F00DFFE12
:0100110022CC
:0400A7007F02DFFEF7
:0100AB002232
:0100120022CB
:07009200D2AFD28AD2AA22EC
:09008900BF0103020092C2AF2284
:03001300020016D2
:10001600C0E0C0F0C083C082C0D075D000C000C0B0
:1000260001C002C003C004C005C006C0077F0A7E27
:100036000012006320B30BD2A27F647E001200631D
:10004600C2A2D007D006D005D004D003D002D0017A
:0D005600D000D0D0D082D083D0F0D0E032E6
:0100AC002231
:07009900BF01031200AC22BD
:0100AD002230
:0700A000BF01031200AD22B5
:03000000020003F8
:0C000300787FE4F6D8FD758107020078D4
:00000001FF
